:100000000C9402020C9449020C9449020C9449028B
:100010000C9449020C9449020C9449020C94490234
:100020000C9449020C9449020C9492220C9464237F
:100030000C949C190C9449020C9449020C944902AA
:100040000C9449020C9449020C9449020C94490204
:100050000C9449020C94E9190C9449020C9449023D
:100060000C9449020C9449020C9449020C944902E4
:100070000C9449020C9449020C9449020C944902D4
:100080000C9449020C9449020C9449020C944902C4
:100090000C9449020C9449020C9449020C944902B4
:1000A0000C9449020C9449020C944902820E820E6F
:1000B000940E940E8B0E940E940E940E820E820E5D
:1000C000900E940E940E900EE40EE40E180F180F7E
:1000D000620F7E0F97109710890F2410371037107A
:1000E000D123F823F024F823F02444246724F024B7
:1000F000BE24CD24F400F100F500000004421700F6
:100100001C00000008441643044212411500170069
:100110001C000C000000220023000000210022002F
:1001200000001F00200000001E001F00000004420D
:100130001241000004420C00000004421C000000B8
:100140001C00170016430000084415001700164352
:10015000000004421C000C001241000016431C0069
:10016000000016430C000000164308440000150070
:100170000844000004420844000008441C000C002D
:1001800012410000124104421500000012410442D5
:100190001500170000000442150017001643000068
:1001A0001500170016430000044216430000150016
:1001B00016430000170016430000044217001643C0
:1001C000000008440C00124100000C001241000025
:1001D0001C000C001241000008441C000C00000030
:1001E0001C00124100001C000C00000008440C0020
:1001F0000000044217000000150017000000044230
:10020000150000000442150017000000044215000C
:100210001643000008441C0000000844124100007E
:1002200008441C0012410000044215001700164348
:1002300008441C000C0012414A0052004D0000000E
:10024000500051004F0000000000260227022F023C
:1002500000002F00300030021E001F0020000000B0
:10026000210022002300000000003100330035008F
:1002700000002D002E000000F400F000F5004B00FF
:10028000F200F100F3004E000403300000000E0302
:100290004D006100630072006F0032000000160321
:1002A000420072006F006F006D005F004C00610043
:1002B0006200730000000403090409023B0002010C
:1002C00000A0FA0904000001030101000921110145
:1002D00000012240000705810308000A090401000B
:1002E000010300000009211101000122BC000705E3
:1002F000820320000A1201100100000008EDFE60D8
:100300006001000102030105010902A10185020942
:1003100001A100050919012905150025019505759B
:10032000018102950175038101050109300931152B
:1003300081257F95027508810609381581257F95ED
:100340000175088106050C0A38021581257F950183
:1003500075088106C0C005010980A1018503190146
:100360002AB700150126B700950175108100C00558
:100370000C0901A101850419012AA002150126A07A
:1003800002950175108100C005010906A1018505CE
:10039000050719E029E71500250195087501810277
:1003A0000507190029EF1500250195F07501810257
:1003B0000508190129059505750191029501750337
:1003C0009101C005010906A101050719E029E715FA
:1003D00000250195087501810295017508810105C7
:1003E00007190029FF150026FF00950675088100F2
:1003F00005081901290595057501910295017503F7
:100400009101C00011241FBECFEFDAE0DEBFCDBFE7
:1004100004B603FE27C08091A8079091A907A09178
:10042000AA07B091AB078730904BA740B04BD1F4EF
:100430001092A8071092A9071092AA071092AB0772
:1004400014BE84B7877F84BF0FB6F894A8958091B7
:100450006000886180936000109260000FBEE0E051
:10046000F8E3099512E0A0E0B1E0ECE2FBE402C0A1
:1004700005900D92A638B107D9F727E0A6E8B2E0BB
:1004800001C01D92A83AB207E1F70E94D01F0C9458
:1004900094250C94000087339D45A1F4FB018281D3
:1004A000882381F080918602811107C081E08093CA
:1004B000860281EE0E94AB0D05C01092860281EE8D
:1004C0000E94010E81E00895089581E008950C9442
:1004D0004B0208950C9469021F93CF93DF9300D0D1
:1004E00000D01F92CDB7DEB749835A836B8330911A
:1004F000E10689819A81311114C0662359F02223C3
:1005000049F00E94AF16182F682F89819A810E94A6
:100510005A1603C00E948416182F69817A81812F90
:1005200004C00E94AF1669817A810F900F900F90DE
:100530000F900F90DF91CF911F910C944404FC0118
:10054000262F86819781009739F4408151816281FD
:10055000738184810C946C020895CF93DF93EC0136
:1005600061E00E949F02BE01DF91CF910C94930A3B
:10057000CF93DF93EC0160E00E949F02BE01DF9108
:10058000CF910C946A020E94D417811102C00E947C
:100590007E180C9441050E943D0A0C943D05089577
:1005A0000E94700E0E94CF022FEF84E39CE0215046
:1005B00080409040E1F700C000000C940F1A0F93A8
:1005C0001F93CF93DF93EC0161E00E949F028C01A7
:1005D000BE010E940009882379F1BE01C8010E9472
:1005E0006702882349F1BE01C8010E949E06882344
:1005F00019F1BE01C8010E94F0068823E9F0BE018E
:10060000C8010E941B088823B9F08A81882369F0F9
:1006100001158CE5180731F00E3D1C4531F40E94A0
:100620007E180AC00E94D00207C0CE01DF91CF9190
:100630001F910F910C94650280E0DF91CF911F9183
:100640000F91089508950C94220381E008950C946D
:100650002503CF93C82F0E9423038C2F0E942703CA
:10066000CF910895CF93DF930E945C04EC01811534
:1006700021E5920708F045C0811530E5930708F0A1
:1006800094C0883E910528F5803E910508F0F8C099
:10069000883A910570F4853A910508F07CC0813064
:1006A000910509F475C008F4E8C0049708F0E8C0A3
:1006B000E4C08F3B910508F0E0C0C85AD0E0CC0FF1
:1006C000DD1FC55EDD4F0990D881C02DCE01946439
:1006D000D8C0811540E2940758F4811551E0950780
:1006E00008F0CEC0803F910508F4C7C09065C9C02E
:1006F000C11580E4D80708F4C0C0DF70CE01906A4D
:10070000C0C0811525E59207A8F4811534E593074B
:1007100008F095C0811543E5940708F07BC081156A
:1007200052E5950708F061C0D82FCC27CE01816F24
:10073000906AA7C0C11589E5D807A0F4C11528E5BE
:10074000D20708F082C0C11536E5D30708F095C07E
:100750008C2F0E94F0048F7190E0D82FCC27CE010F
:1007600090628FC0C1154AE5D40708F474C0CE0169
:1007700090568115904208F080C08D2F8F710E9495
:10078000F004DD27D0628F71AE01582BCA0179C009
:1007900081E090E076C0C55AD0E0C75BDD4F88812C
:1007A000C82FD0E0CE0190646CC074E09695879518
:1007B0007A95E1F7282F23703C2F337081E090E089
:1007C00002C0880F991F3A95E2F79C68AC01522B42
:1007D0009A019C2F9F709695969550E2959FE00107
:1007E0001124C9018C2B9D2B4CC08370992721E0CB
:1007F00030E002C0220F331F8A95E2F79C2F9695B6
:10080000969580E2989FE0011124C22BD32BCE0154
:100810009C6837C08370992721E030E002C0220F26
:10082000331F8A95E2F79C2F9695969540E2949F08
:10083000E0011124C22BD32BCE019A6822C0D82FFD
:10084000CC27CE01846F906A1CC0DC2FCC27CE0150
:10085000806F906A16C08C2F8F700E94F00494E015
:10086000D695C7959A95E1F7CF70D0E0DC2FCC27CD
:10087000D0699E01282BC90104C080E090E001C02E
:10088000CE01DF91CF910895E72FF0E0E80FF11D41
:10089000E80FF11DEE0FFF1FEE0FFF1FE60FF11D1A
:1008A000EE0FFF1FE85DFD4F8591949108950E9422
:1008B00044040E94320308958238910569F1B0F42E
:1008C0008133910509F46DC048F48932910509F42A
:1008D00063C08A32910509F469C008958533910592
:1008E00009F455C089339105B9F00895833E910507
:1008F00069F138F4803E9105B1F0823E910509F12D
:100900000895863E9105A9F1873E9105B9F1843E8F
:10091000910509F064C023C02091990720FD4FC0C4
:1009200021FD4DC008958091990780FD44C08091BC
:100930009A0780FF44C08091990784FD42C083EEEE
:100940004DC08091990782FF38C0F5CF80919907FB
:1009500082FD33C080919A0780FD31C0ECCF809139
:100960009A0781FF32C08091990784FD2AC087EEE3
:1009700035C08091990783FF26C0F5CF80919907F4
:1009800083FD21C080919A0781FD1FC0ECCF80912B
:10099000990785FD1CC01DC08091990785FD19C070
:1009A00016C08091990786FD16C017C080919907DF
:1009B00086FD13C010C089E311C082EE0FC080EE27
:1009C0000DC080E00BC086EE09C084EE07C089E24E
:1009D00005C085E303C08AE201C081E390E0089589
:1009E0009091990792FF0DC0282F2871283019F493
:1009F000877F846006C0282F2471243011F48B7FF8
:100A0000886093FF0DC0282F2871283119F4877E44
:100A1000846106C0282F2471243111F48B7E8861F3
:100A200020919A0720FF0DC0382F3871383019F403
:100A3000877F816006C0382F3171313011F48E7F8D
:100A4000886021FF0DC0282F2871283119F4877E76
:100A5000816106C0282F2171213111F48E7E8861B9
:100A600094FD877E0895E82FF0E0ED56F84F8081E1
:100A70000895089508950C943A050C943B050C9440
:100A80003A050C943F05CF93DF934CE452E0A1E08C
:100A9000B0E020E030E0FA01E20FF31F80818F3FE9
:100AA000A1F0E82FE295EF70F0E061A18F70ED0109
:100AB00002C0CC0FDD1F8A95E2F7CE019C2F9095E6
:100AC000962391A392A1892B82A32F5F3F4F2430BD
:100AD000310509F74C5F5F4FD2E044355D07C9F639
:100AE0001092910710929307109292071092940718
:100AF00082E00E94CF05DF91CF910C94C3020F9347
:100B00001F93CF93DF93E1E9F7E06CE472E0C0E07C
:100B100001E010E080E090E050E0DB01A80FB91F99
:100B20004C914F3FC9F0A42FA295AF70B0E09096C2
:100B30002C9130E04F7002C0359527954A95E2F729
:100B400020FD07C09801082E01C0220F0A94EAF781
:100B500002C020E030E0522B019684309105E9F686
:100B60008081851719F0508381E001C080E0C82B97
:100B700031966C5F7F4F87E0E339F80759F62C2FE9
:100B800042E063E977E081E997E00E94D0050E94A6
:100B9000CB028C2FDF91CF911F910F910895089573
:100BA000FF920F931F93CF93DF938C01F62ED72FD5
:100BB000C42F222349F081E0809389020E94CE193C
:100BC0009093880280938702809189028823C1F0E4
:100BD00080918702909188020E94DA19069780F02E
:100BE000EF2DFD2FD8014C2F50E0CD01801B910B34
:100BF000841795071CF48D918193F7CF1092890289
:100C0000DF91CF911F910F91FF900895AF92BF9206
:100C1000CF92DF92EF92FF920F931F93CF93DF93C8
:100C20007C015B01C42FD22FFC0182818823F9F063
:100C300040938C020E94CE1990938B0280938A027B
:100C400080E28C0F883008F06EC0C77081E001C070
:100C5000880FCA95EAF7DF91CF911F910F91FF900E
:100C6000EF90DF90CF90BF90AF900C94480E8091A2
:100C70008C02481335C080918A0290918B020E94A9
:100C8000DA196C01B701C5010E94AA11C816D9066C
:100C900038F510E21D0FCD17B9F080E28C0F8830C7
:100CA00040F4C77081E001C0880FCA95EAF70E943E
:100CB0004F0E183058F581E09D2F977001C0880FB6
:100CC0009A95EAF70E94480E802F0E94350E183040
:100CD00050F5D77081E001C0880FDA95EAF70AC0B5
:100CE00080E28C0F8830F8F4C77081E001C0880F73
:100CF000CA95EAF7DF91CF911F910F91FF90EF9086
:100D0000DF90CF90BF90AF900C944F0E802FDF916B
:100D1000CF911F910F91FF90EF90DF90CF90BF90F8
:100D2000AF900C94350EDF91CF911F910F91FF90F2
:100D3000EF90DF90CF90BF90AF9008950F939C01FC
:100D4000CB01233F4CE5340731F188F4283DFCE525
:100D50003F07D9F0293D4CE5340779F1273D3C4563
:100D6000A9F506E221EE41EE67ED7CE52BC0253FBB
:100D7000FCE53F07E1F0A8F0263F3C4539F507E2E6
:100D800025EE46EE66EF7CE51DC007E225EE45EE5A
:100D900068ED7CE517C006E221EE40EE63EF7CE5EE
:100DA00011C007E225EE44EE64EF7CE50BC006E2DD
:100DB00021EE42EE65EF7CE505C008E221E045EE5C
:100DC00069ED7CE50E94060680E008C0FC01828196
:100DD000882319F010928C0201C081E00F910895D0
:100DE000CF93DF93EC01FB018281882309F41FC1BB
:100DF000C230FCE5DF0708F41BC1C6319CE5D9070A
:100E000038F09E012A5F3C452930310508F010C1B9
:100E10000E94F11790939A0780939907C031ECE5EF
:100E2000DE0709F4C3C008F041C0C8308CE5D8071C
:100E300009F49AC0F0F4C430ECE5DE0709F487C089
:100E400068F4C2308CE5D80709F477C0C330DC45BC
:100E500009F0E3C080919907826076C0C630ECE566
:100E6000DE0709F46EC008F07BC0809199078860A6
:100E70006BC0CC308CE5D80709F485C068F4CA3063
:100E8000ECE5DE0709F474C008F079C00E94700E2A
:100E900080919907806858C0CE308CE5D80709F456
:100EA00076C008F07FC0809199078BC0CB3FECE5FE
:100EB000DE0709F44FC018F5C3318CE5D80709F4F3
:100EC0007DC078F4C131ECE5DE0709F473C0C231AE
:100ED000DC4509F0A2C00E94700E809199078F77BF
:100EE00033C0C5318CE5D80709F472C008F486C058
:100EF000CA3FDC4509F091C080919A073EC0CF3FC0
:100F0000FCE5DF0709F45FC058F4CD3F9CE5D90745
:100F100009F444C008F43FC080919A0782602DC054
:100F2000C130FDE5DF0709F475C008F45DC0C230CB
:100F3000DD4509F072C080E06EC080919907816044
:100F400003C08091990780618093990766C0809162
:100F5000990711C080919A07826080939A075DC0BB
:100F6000809199078062F0CF809199078064ECCFDF
:100F70008091990788608460E7CF8160EECF80918F
:100F800099078E7FE1CF809199078D7FDDCF80918A
:100F90009907877FD9CF80919A0718C080919A07C7
:100FA0008D7FDBCF809199078F7ECECF809199077F
:100FB0008F7DCACF809199078F7BC6CF809199078B
:100FC000877F8B7FC1CF80919A078D7F8E7FC5CF22
:100FD0008091990782FB222720F991E0922790FBCC
:100FE00082F990FB83F9B0CF80919A07982F909562
:100FF00091708E7F892B90FB81F9AFCF0E94700E8C
:101000008091990787FB222720F991E0922790FB96
:1010100087F99ACF81E00E9480188091990790917A
:101020009A070E9402180E94700E80E001C081E0C1
:10103000DF91CF910895CF93DF9386319C4541F5A1
:10104000EB010E943017982F8A812091060230917F
:101050000702882379F09A7A81E009F480E080938E
:101060008D02911102C069E201C065E3C9010E94CD
:101070001B190AC080918D02811102C069E201C072
:1010800065E3C9010E9426190E94711780E001C022
:1010900081E0DF91CF9108950895089508950C940B
:1010A0004E080F931F93CF93DF93EC018B010E94A7
:1010B0004C080E94700E0E94A21519830883DF91CC
:1010C000CF911F910F9108958F929F92AF92BF92EF
:1010D000CF92DF92EF92FF921F93CF93DF93EC01B9
:1010E0007B01142F8090330790903407A090350730
:1010F000B09036070E94700E0E94A21588E0180278
:1011000060011124CE15DF0531F0CE010E940511DA
:10111000CC0DDD1DF7CF0E94700E809233079092A8
:101120003407A0923507B0923607812FDF91CF9117
:101130001F91FF90EF90DF90CF90BF90AF909F9066
:101140008F900C944F080F931F93CF93DF93F80168
:101150003281EB01A881B981311103C0A817B90709
:10116000F9F088E02802E0011124CD018C1B9D0BD1
:101170004817590769F088E001900D928A95E1F7C8
:10118000FB0180819181C80FD91FD183C08308C022
:10119000BF01822FDF91CF911F910F910C944D08C9
:1011A000DF91CF911F910F910895CF92DF92EF922F
:1011B000FF920F931F93CF936C018B01C42F790182
:1011C000842F0E944E0888E0C802A0011124519586
:1011D000419551090C151D0559F4F7011183008340
:1011E000CF911F910F91FF90EF90DF90CF900895D6
:1011F000F801E40FF51F8281882379F38F01EACF8C
:101200000F931F93CF938B0120919006211139C02A
:10121000FB01C281C11184C08430FDE59F07E9F064
:1012200060F483309D4509F07AC06EE872E08EE884
:1012300096E00E94510881E017C086304DE5940782
:10124000B1F087309D4509F06AC06091FE01709150
:10125000FF014FEF86E896E011C066E876E08EE881
:1012600096E00E94510882E08093900659C06091F8
:1012700000027091010241E08EE892E00E94640851
:101280004FC08330FDE59F0770F186303DE5930741
:1012900028F088309D4508F440C025C031E08530F5
:1012A0009D4509F430E0F80182818317B1F12130C6
:1012B00061F02230A9F460918E0670918F062EEFB6
:1012C00031E04FEF86E896E009C060918E0670919C
:1012D0008F0620E032E041E08EE892E00E94D508DF
:1012E000109290061AC0213061F02230C1F4409172
:1012F0000002509101022FEF6EE876E086E896E05A
:1013000009C04091FE015091FF0121E06EE876E0B6
:101310008EE892E00E94A30802C0C0E001C0C1E0D4
:101320008C2FCF911F910F9108950F931F93CF93FF
:10133000DF93CDB7DEB728970FB6F894DEBF0FBEA8
:10134000CDBF182F092FFE01319688E0DF011D92D5
:101350008A95E9F78EEF89838A836B830E94CE1981
:101360008160582F9D838C8329813A814B816D81C7
:101370007E81812F902F0E94951428960FB6F894A5
:10138000DEBF0FBECDBFDF91CF911F910F910895AA
:101390001092D5061092D4062FEF3FEF309305023E
:1013A000209304021092D3061092D20640910001BD
:1013B00050910101A2E0B1E020E030E066E02417A6
:1013C0003507B9F0629FF001639FF00D1124EA5FC9
:1013D000FE4F908191FD09C09E7F9083882329F064
:1013E00091FD03C015961C9215972F5F3F4F1696DF
:1013F000E6CF0895CF93C82F0E94C8098091D106E7
:101400008823E9F0CC2311F0C0E003C01092D1068C
:1014100016C08091D106C817C8F788E0C89FF001B0
:101420001124EF56F94F208131814281538164812B
:101430007581868197810E949514CF5FEACFCF9105
:101440000895E091D406F091D5068281938161E000
:10145000009719F00E94950906C0809104029091AE
:1014600005020E946402E091D406F091D5068481C1
:101470008260848380E00C94FA09CF93DF9380919B
:101480000202882389F180910302882369F1809107
:10149000D6069091D706009739F1D091D206C09127
:1014A000D3060E94DA192D2F3C2F2436310510F473
:1014B00024E630E028173907B8F4E091D406F0911B
:1014C000D506309739F0848180FD04C0DF91CF913B
:1014D0000C94210A81E00E94FA091092D70610921A
:1014E000D60681E080930302DF91CF91089581E0D9
:1014F00080930202809303020895109203021092D7
:1015000002021092D7061092D6061092D5061092BB
:10151000D40681E00C94FA098091020281110C94A6
:101520007D0A0C94770A2F923F924F925F926F92AE
:101530007F928F929F92AF92BF92CF92DF92EF9263
:10154000FF920F931F93CF93DF936C017B01873F33
:101550002CE5920739F4FB01C281CC23C1F00E9433
:10156000770A5DC1883FFCE59F0739F4FB01C28122
:10157000CC2369F00E947D0A52C1893F9C4539F411
:10158000FB01C281CC2319F00E948C0A48C18091D2
:101590000202882309F442C1C2E0D1E000E010E079
:1015A00066246394512C86E0482E33243394AA2475
:1015B000A394B12C24E6822E912C8091000190916D
:1015C00001010817190708F0E7C088814981222422
:1015D0002A9490E0E82FF42FE90FF11DE90FF11D97
:1015E00025913491C216D30609F4292E232B11F02C
:1015F0009F5FF0CFFFEF2F1210C0409EF001419E81
:10160000F00D1124EA5FFE4F808181FB772470F892
:1016100081FDA5C081608083A3C040910302409EEC
:10162000F001419EF00D1124EA5FFE4F2081822FD0
:101630008170782E73247422F701328126952170EF
:101640003323D9F1211115C0950101C0220F2A942D
:10165000EAF73D81232B2D832091D2063091D306CA
:101660002436310530F481117BC09092D3068092EC
:10167000D206841708F074C0950102C0220F331FF0
:101680009A95E2F7215031098D8190E028173907AA
:1016900009F066C08091D6069091D7060E94DA19AB
:1016A0008436910508F05CC0D093D506C093D4066B
:1016B000109305020093040253C08D81211118C0BC
:1016C000950102C0220F331F9A95E2F7215031098C
:1016D00090E028173907C1F5E091D406F091D506BE
:1016E000309791F1848180FD2FC00E94210A2DC086
:1016F00090E09C012150310928233923022C02C09B
:10170000959587950A94E2F7232BD1F480FF18C0B2
:101710008A819B8160E0009719F00E94950903C0BF
:10172000C8010E946402409EF001419EF00D112408
:10173000EA5FFE4F80818D7F80837724739405C09C
:10174000F82FF1707F2E01C0712CC50101C0880FE8
:101750002A94EAF780959D8189238D8301C0712C9D
:101760005728662081F08D81882379F0409EF00112
:10177000419EF00D1124EA5FFE4F608061FC05C0C0
:10178000862D817003C080E001C081E08170682EE9
:101790000F5F1F4F269611CF511004C081E00E94A9
:1017A000FA0928C0F7018281882341F18091030260
:1017B000882381F18091D6069091D706892B31F448
:1017C0000E94CE199093D7068093D606A091D10699
:1017D000A83080F481E08A0F8093D106F8E0AF9FB3
:1017E000D0011124AF56B94F88E0F70101900D9256
:1017F0008A95E1F7F701828181110CC0662051F0D2
:1018000081E00E94FA091092D7061092D60681E074
:101810008093030281E0C52DC82701C0C1E08C2F51
:10182000DF91CF911F910F91FF90EF90DF90CF90BC
:10183000BF90AF909F908F907F906F905F904F90F0
:101840003F902F9008959093DD068093DC060895D5
:10185000E091DC06F091DD06309721F00190F081F7
:10186000E02D099480E00895E091DC06F091DD061A
:10187000309799F020911A02222359F0209199076C
:1018800027FF07C0DC012C9111962C93119725E0BE
:101890002C930280F381E02D09940895E091DC06F9
:1018A000F091DD06309739F022E0DC012C930480C2
:1018B000F581E02D099408952091DA063091DB0638
:1018C0002817390771F09093DB068093DA06E091D0
:1018D000DC06F091DD06309721F00680F781E02DDF
:1018E000099408952091D8063091D9062817390710
:1018F00071F09093D9068093D806E091DC06F091C0
:10190000DD06309721F00084F185E02D09940895DB
:1019100085B7806885BF85B7806885BF08950895BD
:101920000C948F0C0C94900C0C948F0C0C948F0CCA
:101930000E94880C0E94940C0C94920C81E00895F3
:101940000C949E0C0E94C5190E9443050E94641AC3
:101950000C94960CAF92BF92CF92DF92EF92FF92CF
:101960000F931F93CF93DF93CDB7DEB72A970FB6B0
:10197000F894DEBF0FBECDBF0E947F050E94A00C71
:10198000811111C08FEF89838A831B820E94CE1937
:101990008160782F9D838C8349815A816B818D81F1
:1019A0000E94420D40C08FEDA82E86E0B82E00E0C8
:1019B00010E0C02E802F0E943305E82EF501D19053
:1019C0005F01D82631F40F5F1F4F02301105D1F2AD
:1019D000F0CF8091600781FD0E94390580E0FF24EF
:1019E000F3949D2D9F21D1F08E83CF82EF2081E053
:1019F00009F480E088870E94CE198160782F9A8749
:101A000089874E815F8168858A850E94420DF80131
:101A1000E152F94F8081F826F08205C08F5FFF0CFC
:101A20008430F9F6D0CF0E94351D0E94280C909189
:101A3000DE068917B1F00E94280C8093DE062A96F4
:101A40000FB6F894DEBF0FBECDBFDF91CF911F91CF
:101A50000F91FF90EF90DF90CF90BF90AF900C94DC
:101A600029032A960FB6F894DEBF0FBECDBFDF91D3
:101A7000CF911F910F91FF90EF90DF90CF90BF908B
:101A8000AF900895CF93DF93CDB7DEB72D970FB604
:101A9000F894DEBF0FBECDBF942F4987252F5A87FC
:101AA0006B877C878D874C855D85452B31F02F3F7B
:101AB00031F481E09F3F19F403C081E001C080E070
:101AC00080FD09C08091E2069091E3060196909313
:101AD000E3068093E2069E012F5F3F4F88E0F90105
:101AE00011928A95E9F785E0FE013996D9010190B6
:101AF0000D928A95E1F789819A814C815D81452B10
:101B000031F09F3F31F491E08F3F19F403C091E031
:101B100001C090E090FF0BC029813A814B815C812C
:101B20006D817E818F8198850E94951405C0C901C1
:101B30000E94AD028111F0CF2D960FB6F894DEBF52
:101B40000FBECDBFDF91CF910895FC0180819181BF
:101B50000E94F1160895CF93882309F450C0C82F2E
:101B60008CEF8C0F813AD0F46C2F8091060290910B
:101B700007020E949B18882349F06C2F809106026F
:101B8000909107020E9426190E9471176C2F809174
:101B90000602909107020E941B190CC080E28C0F74
:101BA000883058F4C77081E001C0880FCA95EAF701
:101BB0000E943317CF910C947117EBE5EC0FE330D3
:101BC00040F4F0E0EE57FD4F808190E0CF910C940F
:101BD0005C0CE8E5EC0FE73150F4F0E0EE0FFF1F8E
:101BE000EC5AFD4F80819181CF910C94720CC03FD3
:101BF00030F08C2F0E942A1CCF910C94171DCF918E
:101C00000895882389F19CEF980F913A40F4682F4A
:101C100080910602909107020E9426190DC090E261
:101C2000980F983058F4877091E001C0990F8A9509
:101C3000EAF7892F0E9439170C9471179BE5980FCA
:101C4000933020F480E090E00C945C0C98E5980FC1
:101C5000973120F480E090E00C94720C803F20F0EB
:101C60000E94921C0C94171D0895CF93C82F0E94B8
:101C7000AB0DC93349F42FEF87EE93E0215080403C
:101C80009040E1F700C000008C2FCF910C94010E22
:101C9000882321F00E9433170C947117089588232C
:101CA00021F00E9439170C94711708950E94501763
:101CB0000E9453170E9471170E94481E0E94171D10
:101CC00080E090E00E945C0C80E090E00C94720C4C
:101CD00080910602909107020E9431190C94560ED1
:101CE0000E9440170C94680EE92FE295EF704E2F7A
:101CF00050E0FA013297EE30F105B0F4EA5AFF4FA6
:101D00000C943825803F91F018F4883E68F40EC09A
:101D1000843F51F40BC0883E48F0813F29F406C04F
:101D200093FB882780F9089580E0089581E0089565
:101D3000FC0186819781009719F00E94320304C04C
:101D4000808191810E94F1160E94740E08958F92F5
:101D50009F92AF92BF92CF92DF92EF92FF920F933A
:101D60001F93CF93DF936C01EB01FC01058102957A
:101D70000F70128111110E9450170E942917882399
:101D800099F0112389F08D2F807F803421F080E23B
:101D90008C0F883048F082E00E94BB170E94291700
:101DA00091E0E82EE92601C0E12CBD2EB2942FE08F
:101DB000B2228B2D90E08C30910508F0B8C1FC0167
:101DC000EC59FF4F0C9438259D2F9F708D2F807FED
:101DD000F92E19F0F29490EFF922112399F0FF20D7
:101DE00009F491C180E28C0F883010F0C11104C059
:101DF0008F2D0E94331703C08F2D0E9443170E941E
:101E0000711781C18C2F0E94010EFF2009F48FC130
:101E100080E28C0F883010F0C11104C08F2D0E9419
:101E2000391703C08F2D0E9449170E9471177FC177
:101E30009D2F9F708D2F807FF92E803219F0F294A4
:101E400080EFF822CC2319F0C130C9F025C011234E
:101E500071F0002341F0013031F40E9456178F29B0
:101E60000E945E1764C10E9456178F290EC000237E
:101E700019F0013009F45BC10E9467171FC01123DC
:101E800039F0063008F053C18F2D0E94480E4FC123
:101E9000053008F04CC112C0112319F00023A1F342
:101EA00032C1002359F0C93309F03EC1FFEF27EEDC
:101EB00083E0F15020408040E1F734C18F2D0E9433
:101EC0004F0E35C18D2F86958695837019F0813020
:101ED00059F02DC1112319F0CE01937002C080E09A
:101EE00090E00E945C0C2BC1112319F0CE0193707D
:101EF00002C080E090E00E94720C21C18C2F11235F
:101F000019F00E942A1C02C00E94921C0E94171DF8
:101F100016C18D2F837009F048C011110CC12C2FF0
:101F2000229526952770220F220F6C2F6F70862F17
:101F300090E0A0E0B0E0022E04C0880F991FAA1F15
:101F4000BB1F0A94D2F7C4FF10C04FE050E060E01E
:101F500070E004C0440F551F661F771F2A95D2F703
:101F6000409550956095709503C040E050E0BA01EF
:101F70002D2F2695269523704A015B01882A992AE0
:101F8000AA2ABB2AC501B401223049F058F42130F5
:101F900019F00E947015CFC00E945E15CCC00E943F
:101FA0008215C9C00E945C15C6C0112319F08D2F7F
:101FB000817001C08695882309F4BDC02C2F22951D
:101FC00026952770220F220F6C2F6F70862F90E0BE
:101FD000A0E0B0E0022E04C0880F991FAA1FBB1F0B
:101FE0000A94D2F7C4FF10C04FE050E060E070E008
:101FF00004C0440F551F661F771F2A95D2F74095DE
:1020000050956095709503C040E050E0BA012D2FC7
:102010002695269523704A015B01882A992AAA2AC7
:10202000BB2AC501B401223049F058F4213019F01F
:102030000E94351680C00E9423167DC00E9447165C
:102040007AC00E94961577C02D2F2F70F22E112383
:1020500039F0822F0E94BC158C2F0E94480E6BC055
:102060008C2F0E944F0E8F2D0E94DD1564C0C23F41
:1020700001F128F4C03F41F0C13FA1F040C0C33F8F
:10208000F9F0C43F39F13BC0112341F0053008F0AD
:102090004EC08D2F8F710E94021649C0063008F085
:1020A00046C0F7CF112339F08D2F8F710E94BC15D8
:1020B0003EC01123C9F38D2F8F710E94DD1537C0EB
:1020C000112329F08D2F8F710E94A71530C00E9417
:1020D000A2152DC0112351F08D2F8F71F82E0E9463
:1020E000BC1563E08F2D0E94A61721C081E00E94DD
:1020F000BB170230E0F082E00E94BB1718C011232A
:1021000031F0002389F28C2F0E94AB0D10C0002308
:1021100091F2C93349F49FEFE7EEF3E09150E040CC
:10212000F040E1F700C000008C2F0E94010E88EF04
:102130008B0D843020F40E94280C0E942903CE01CC
:102140000E94740E811105C01092E3061092E206FF
:1021500011C0112319F00111F7CF0CC00111F4CFF8
:102160008091E2069091E306029771F78C2F0E940E
:10217000350EEACFEE20E9F00E94251780FD19C048
:10218000F60112820E941F170E94BC15C6010E9410
:1021900005110E941F17DF91CF911F910F91FF90A2
:1021A000EF90DF90CF90BF90AF909F908F900C9466
:1021B000DD15DF91CF911F910F91FF90EF90DF9090
:1021C000CF90BF90AF909F908F9008950F931F93E3
:1021D000CF93DF93EC018E819F81009719F00E94CD
:1021E000320305C0688179818A810E94FC168C01C6
:1021F0000E9459160E944A15B801CE010E94A70EEE
:10220000DF91CF911F910F910895CF93DF93EC0150
:10221000988189812B813C81232B31F08F3F31F4D0
:1022200081E09F3F19F403C081E001C080E080FDA0
:1022300019C0CE010E94DF0281110CC00E94291733
:10224000882381F08A81882369F082E0DF91CF9131
:102250000C94BB17CE010E94E610CE01DF91CF9106
:102260000C94B802DF91CF910895CF93DF9300D003
:1022700000D01F92CDB7DEB70F900F900F900F9048
:102280000F90DF91CF910895CF93DF93CDB7DEB755
:1022900028970FB6F894DEBF0FBECDBF28960FB6B5
:1022A000F894DEBF0FBECDBFDF91CF910895CF93DD
:1022B000DF93C091E4068091E506C817B1F0D0E045
:1022C000FE0183E0EE0FFF1F8A95E1F7EA51F94F17
:1022D000208131814281538164817581868197811A
:1022E0000E9444112196C770E6CFDF91CF910895E7
:1022F0002091260730912707409128075091290700
:1023000060912A0770912B0780912C0790912D07DF
:102310000C9444112091E4069091E5062917B1F040
:1023200030E0F90153E0EE0FFF1F5A95E1F7EA5153
:10233000F94F5181561306C05081581303C0528182
:10234000541306C02F5F3F4F2770E8CF80E00895F9
:1023500081E0089586E990E00895EF92FF920F934F
:102360001F93CF93DF9380912B0782958F7009F095
:1023700061C080912807882309F45CC0C091E406FD
:102380008091E506C81709F455C090912607409141
:1023900027072091290730912A072115310531F0AF
:1023A0004F3F31F481E09F3F19F403C081E001C049
:1023B00080E0D0E080FD3BC08E0183E0000F111F64
:1023C0008A95E1F7F801EA51F94F818184132FC012
:1023D000808189132CC08281811129C0E380F4801F
:1023E000E21AF30A60E086E297E00E949F0266E24A
:1023F00077E00E94AA11E816F906C8F480912B072D
:102400008F70806180932B07F801E551F94F80812F
:102410008F708061808386E297E00E940511DF91D2
:10242000CF911F910F91FF90EF900C94571121962F
:10243000C770A6CFDF91CF911F910F91FF90EF90C2
:1024400008956F927F928F929F92AF92BF92CF9298
:10245000DF92EF92FF920F931F93CF93DF93CDB74D
:10246000DEB765970FB6F894DEBF0FBECDBF8C0107
:1024700085E0F801DE01519601900D928A95E1F711
:10248000D8011296EC909091260780912707209111
:10249000290730912A072115310531F08F3F31F49A
:1024A00081E09F3F19F403C081E001C080E080FD1E
:1024B0000CC2F80160807180C380D48086E2A82EAF
:1024C00087E0B82EF09028074601821A930A60E050
:1024D000FF2009F4A1C1C5010E949F02B5010E941D
:1024E000AA1120912B07207F8816990608F03AC17F
:1024F00090912607309127074091290750912A078C
:102500002111B4C0452B31F03F3F31F481E09F3FB2
:1025100019F403C081E001C080E080FD28C0D8012B
:1025200011968C911197831322C08C9189131FC02F
:1025300020912C0730912D0716968D919C9117971D
:1025400028173907A1F4FE2CE11011C080912B0748
:102550008F70806180932B070E94781186E297E04C
:102560000E94051180912B07F8018583C8C160E0A6
:1025700086E297E00E949F02B8010E94AA11843F60
:10258000914030F1C114D10439F02FEF721206C01E
:1025900081E0621203C003C081E001C080E080FDE1
:1025A00003C081E08E2502C080E090E080FF10C073
:1025B0004E2D672D862D0E948A11882349F086E2D0
:1025C00097E00E940511E6E2F7E088E0DF01DAC05B
:1025D000CD2839F0BFEF7B1206C081E06B1203C03B
:1025E00003C081E001C080E080FD03C081E08E2552
:1025F00002C080E090E0E82FE170DE2E80FF2CC06A
:102600004E2D672D862D0E948A11F82E811124C02F
:10261000698A7A8A89899A890E94F116292F2295D6
:102620002F70223018F0243090F405C09F7059F0BC
:10263000811109C064C19F7031F0D80115969C9139
:10264000907F09F45CC1805E883008F458C1C801ED
:102650000E940511FD2C53C1FE2CEE2009F44FC140
:1026600080912B07816080932B0791C0452B31F01F
:102670003F3F31F481E09F3F19F403C081E001C086
:1026800080E080FD21C0F801818183131DC080811D
:1026900089131AC020912C0730912D0786819781CC
:1026A0002817390789F4E1100FC080912B07858323
:1026B000C8010E94051188E0F801A6E2B7E0019088
:1026C0000D928A95E1F719C1C8010E94980E8823DE
:1026D00009F442C0EE2009F43FC020912B07822F5D
:1026E00082958F7090E00297A4F0809126079091D8
:1026F00027079A8789871B86DD86CC862E8780915F
:102700002C0790912D07988B8F87CE0109960E94F8
:10271000051188E0F801A6E2B7E001900D928A95D4
:10272000E1F70E94AD110E94781119C0909126071F
:10273000209127074091290750912A07452B49F1FD
:102740002F3F49F581E09F3F31F580FF26C0C8014A
:102750000E94980E811141C0C8010E940511FF24FA
:10276000F394CDC02111E2CF7C2DDD8ACC8AA30168
:102770006E2D8D890E94351186E297E00E94051129
:1027800088E0D5011D928A95E9F70E947811F12C15
:10279000B6C081E0DACF80E0D8CFF8018181821322
:1027A000D6CF80818913D3CF20912C0730912D076C
:1027B000868197812817390751F6E110C8CF80919B
:1027C0002B078583C8010E94051188E0E6E2F7E047
:1027D000DF011D928A95E9F792C0EE2009F4BCCF83
:1027E00020912B07822F82958F7090E002970CF436
:1027F00090CF80912607909127079A8389831B8227
:10280000DD82CC822E8380912C0790912D079887B2
:102810008F83CE0101967BCF86E297E00E949F02D4
:1028200066E277E00E94AA118816990608F03FC078
:10283000FE2CEE2009F490CF9091260720912707D7
:102840004091290750912A07452B31F02F3F31F451
:1028500081E09F3F19F403C081E001C080E080FD6A
:1028600018C0F8018181821314C08081891311C0BE
:1028700020912C0730912D078681978128173907E1
:1028800041F488E0A6E2B7E001900D928A95E1F765
:1028900036C0C8010E94980E81113BCF80912B0752
:1028A000816080932B07C8010E94051128C07C2DF0
:1028B000DD8ACC8AA3016E2D8D890E94351188E0B6
:1028C000D5011D928A95E9F718C0EE2009F444CF8E
:1028D000C8010E94980EF82E882309F43DCF88E0A5
:1028E000F801A6E2B7E001900D928A95E1F786E241
:1028F00097E00E94A50D0E94AD110E9478118F2DC6
:1029000065960FB6F894DEBF0FBECDBFDF91CF91B5
:102910001F910F91FF90EF90DF90CF90BF90AF90FD
:102920009F908F907F906F900895CF93DF93CDB756
:10293000DEB760970FB6F894DEBF0FBECDBF298714
:102940003A874B875C876D877E878F87988BCE0110
:1029500009960E9421128823E1F099858A852C85A9
:102960003D85232B31F08F3F31F481E09F3F19F4F7
:1029700003C081E001C080E080FD6FC029853A85F9
:102980004B855C856D857E858F8598890E94441175
:1029900064C088E0FE013996DE01119601900D9227
:1029A0008A95E1F779856A854C855D8541155105E4
:1029B00031F06F3F31F481E07F3F19F403C081E0D3
:1029C00001C080E080FD49C0A091E506B0E0CD01E6
:1029D0000196877099272091E40630E082179307CB
:1029E00009F442C079836A835D834C8393E0AA0F24
:1029F000BB1F9A95E1F7AA51B94F98E0FE013196B5
:102A000001900D929A95E1F78093E5060E94571187
:102A100024C028E0829FC00111248A51994F0E944E
:102A20002112882371F1E091E40688E0E89FF0012B
:102A30001124EA51F94F208131814281538164810F
:102A40007581868197810E9444118091E40690E00F
:102A50000196877099278093E4068091E40690910F
:102A6000E5068913D6CF0DC00E94700E1092E506C0
:102A70001092E406E6E2F7E088E0DF011D928A9515
:102A8000E9F760960FB6F894DEBF0FBECDBFDF91B9
:102A9000CF910895089508950C944B150C944C15FE
:102AA0000E944E156093370770933807809339075B
:102AB00090933A070C94560E0C9450150F931F9355
:102AC00000913707109138072091390730913A0764
:102AD000602B712B822B932B1F910F910C9450150F
:102AE0000F931F93009137071091380720913907F2
:102AF00030913A0760237123822393231F910F9112
:102B00000C9450150F931F930091370710913807BD
:102B10002091390730913A07602771278227932740
:102B20001F910F910C9450150C944B150E94941505
:102B3000609333077093340780933507909336077B
:102B40000C94560E60E070E0CB010C9496150F9338
:102B50001F9341E050E060E070E08A019B0104C0F7
:102B6000000F111F221F331F8A95D2F7C901B80128
:102B70001F910F910C9496150F931F9341E050E015
:102B800060E070E004C0440F551F661F771F8A95F0
:102B9000D2F78091330790913407A0913507B09117
:102BA00036078A019B01082B192B2A2B3B2BC901C5
:102BB000B8011F910F910C9496150F931F9341E04C
:102BC00050E060E070E004C0440F551F661F771F9F
:102BD0008A95D2F74095509560957095809133070E
:102BE00090913407A0913507B09136078A019B0177
:102BF000082319232A233B23C901B8011F910F91F0
:102C00000C9496150F931F9341E050E060E070E044
:102C100004C0440F551F661F771F8A95D2F7809115
:102C2000330790913407A0913507B09136078A0198
:102C30009B01082719272A273B27C901B8011F91A3
:102C40000F910C9496150F931F93009133071091D9
:102C500034072091350730913607602B712B822B7A
:102C6000932B1F910F910C9496150F931F93009126
:102C700033071091340720913507309136076023D0
:102C80007123822393231F910F910C9496150F9318
:102C90001F9300913307109134072091350730912D
:102CA000360760277127822793271F910F910C9475
:102CB00096150895990F990F890FE82FE695E695D7
:102CC000E695877051E001C0550F8A95EAF785E0D7
:102CD000E89FF0011124E25DF84F20E030E070E061
:102CE0004081CB01022E02C0969587950A94E2F7A7
:102CF0008170819584278523842781932F5F3F4F9F
:102D00002530310569F70895990F990F890F682FBC
:102D1000669566956695982F977085E0689FB001D7
:102D2000112440E050E080E0FB01E40FF51FE25D7C
:102D3000F84F208130E0092E02C0369527950A947D
:102D4000E2F721703327042E01C0220F0A94EAF71C
:102D5000822B4F5F5F4F4530510531F70895BF9289
:102D6000CF92DF92EF92FF920F931F93CF93DF9357
:102D70008C01C0903307D0903407E0903507F09075
:102D800036078091370790913807A0913907B091A5
:102D90003A07C82AD92AEA2AFB2ACFE1D0E0D7018C
:102DA000C6010C2E04C0B695A795979587950A94F1
:102DB000D2F780FD04C0219790F7B12C07C0BC2E3C
:102DC000B8018C2F0E9457040197A9F38B2DDF9136
:102DD000CF911F910F91FF90EF90DF90CF90BF9018
:102DE0000895CF93DF93EC010E94AF16BE010E94BD
:102DF0005704DF91CF9108951F93CF93DF93EB0199
:102E00009091E106992321F0CB010E94F11613C0A5
:102E1000882349F0CB010E94AF16182F682FCE01EE
:102E20000E945A1604C0CB010E948416182FBE01BE
:102E3000812F0E945704DF91CF911F9108958091B7
:102E40003B07859585958595089580913B0787700B
:102E5000089590913B07977081E009F480E0089510
:102E600080915F07089590915F07892B80935F079A
:102E70000895809590915F07892380935F07089557
:102E800010925F07089590915E07892B80935E07EB
:102E90000895809590915E07892380935E07089539
:102EA00010925E07089510925D07089580913C0787
:102EB000089508950C9459170C945A1790913C0753
:102EC000981721F080933C070C945C17089580912B
:102ED0003C07882329F010923C0780E00C945C1793
:102EE0000895E0910602F091070280915F078083C8
:102EF000E0910602F0910702908180915E07892B94
:102F00008083E0910602F0910702908180915D0735
:102F1000892B808380913C07882381F0E091060211
:102F2000F09107029081892B808380910602909115
:102F300007020E94851881110E946717809106027E
:102F4000909107020C94340C0C94591798E0899FC7
:102F500090011124262B20933B070E94BC158091E1
:102F60003B078595859585950C94A41710923B0792
:102F700080E00C94A41720913B07809582238093D6
:102F80003B07982F977079F430E0482F082E000CFB
:102F9000550B2417350739F08595859585950E9441
:102FA000DD150C94B617089580E090E00E945A2534
:102FB00021E08C3E9E4F09F020E0822F089582E0B0
:102FC00090E00C945225682F82E090E00C946025EC
:102FD00083E090E00C945225682F83E090E00C94FD
:102FE0006025CF9384E090E00E945225C82F81E2B3
:102FF00090E00E9452252C2F30E0A901582BCA01E5
:10300000CF910895CF93C92F682F84E090E00E945C
:1030100060256C2F81E290E0CF910C946025AB018C
:10302000BC018FE090E00C947225AB01BC0183E100
:1030300090E00C94722560E070E0CB010C941518C0
:1030400060E070E0CB010E940F180C941B186CEE2E
:103050007EEF80E090E00E947E2560E082E090E0DC
:103060000E94602560E083E090E00E94602510925D
:103070003707109238071092390710923A0760E02C
:1030800084E090E00E94602560E081E290E00E9490
:10309000602560E085E090E00E94602560E086E0C9
:1030A00090E00E9460256FEF87E090E00E9460252D
:1030B00040E050E0BA0188E090E00E94722560E0B4
:1030C0008DE090E00E94602540E050E0BA0188E188
:1030D00090E00E94722560E087E190E00E94602508
:1030E00040E050E0BA018CE190E00E94722560E07F
:1030F00080E290E00E9460250C9420180C94271820
:10310000682F8EE090E00C946025FC01329680914F
:103110001A02882331F08091990787FF02C09EE14F
:1031200001C096E080E0915028F021912223D9F34C
:103130008F5FF9CF0895662351F120911A0222235F
:10314000E9F02091990727FF19C0462F469546952B
:1031500046954E31E0F4677021E030E002C0220F66
:10316000331F6A95E2F7FC01E40FF11D828190E0C4
:103170002823392381E0232B69F409C0FC0132960E
:1031800008962191621729F0E817F907D1F780E036
:10319000089581E008959C01FC0132969FEF80E044
:1031A0004191461789F09F3F19F4411101C0982FB2
:1031B0008F5F8630A9F79F3F39F0F901E90FF11DC4
:1031C00097FDFA956283089508959C012A5F3F4F09
:1031D000FC014281461301C01282019682179307B7
:1031E000B9F70895262F2695269526952E3168F451
:1031F000FC01E20FF11D677021E030E001C0220FF9
:103200006A95EAF78281282B22830895262F269536
:10321000269526952E3170F4FC01E20FF11D6770A2
:1032200021E030E001C0220F6A95EAF72095828103
:1032300028232283089520911A02222329F0209125
:10324000990727FD0C94F2180C94CB1820911A02C0
:10325000222329F02091990727FD0C9406190C943C
:10326000E51820911A02FC013296222331F0809158
:10327000990787FF02C08EE101C086E0DF011D9241
:103280008A95E9F7089508950C9443190C9443190D
:103290000E9446190E947F050E94441980E00E9406
:1032A0003305811108C081E00E94330591E081114E
:1032B00003C090E001C091E0892F08950C94431958
:1032C0000C945E190E94601980919F07843049F127
:1032D0001092610720E488E190E00FB6F894A89579
:1032E000809360000FBE2093600080E00E9429035D
:1032F0000E94601983B7817F846083BF83B7816038
:1033000083BF7894889583B78E7F83BF0FB6F89478
:10331000A8958091600088618093600010926000A1
:103320000FBE08950C9443190E94700E0E94280C41
:103330000E9429030C9492191F920F920FB60F92BC
:1033400011248F939F93AF93BF9380916107811155
:1033500013C08091950790919607A0919707B0911F
:1033600098074196A11DB11D8093950790939607EC
:10337000A0939707B0939807BF91AF919F918F91BA
:103380000F900FBE0F901F90189582E084BD93E0C0
:1033900095BD9AEF97BD80936E0008952FB7F8946E
:1033A0008091950790919607A0919707B091980703
:1033B0002FBF08959C014FB7F89480919507909185
:1033C0009607A0919707B09198074FBF821B930B68
:1033D000089578941F920F920FB60F9211248F9335
:1033E0009F93AF93BF938091950790919607A0917B
:1033F0009707B09198070196A11DB11D809395077D
:1034000090939607A0939707B0939807BF91AF91B9
:103410009F918F910F900FBE0F901F90189587E787
:1034200097E790930108809300089AE088E10FB62F
:10343000F894A895809360000FBE90936000FFCF32
:10344000CF92DF92EF92FF920F931F93CF93C0E042
:10345000E82EF12C8C2F0E94330500E010E0C82EDE
:10346000D12CC601002E02C0959587950A94E2F7EB
:1034700080FD06C00F5F1F4F0430110591F70AC091
:10348000602F7C2F80E00E944404E816F90691F733
:1034900081E004C0CF5FC230E9F680E0CF911F9198
:1034A0000F91FF90EF90DF90CF900895CF93C82FAA
:1034B0008CE20E94201A882321F08C2FCF910C944B
:1034C000201A80E0CF910895CF930E94D4178111E4
:1034D00002C00E947E18C5E6C15049F00E947F05D7
:1034E0008FE39CE90197F1F700C00000F5CF89E276
:1034F0000E94561A81112AC18AE20E94561A81112D
:103500000E947E1885E00E94561A81110E940F1AAF
:103510000E94DF178093600787E00E94561A882375
:10352000A9F18BE10E94561A882351F0809160071F
:1035300081FB222720F991E0922790FB81F90EC0B0
:103540008EE00E94561A882361F08091600782FB0A
:10355000222720F991E0922790FB82F9809360075F
:1035600015C080E10E94561A90916007882341F0AF
:1035700093FB222720F981E0822780FB93F904C086
:10358000892F809580FB90F9909360078091600768
:103590000E94E3170E94F11790939A07809399076E
:1035A00080EE0E94561A882341F080919907982F47
:1035B000909590FB80F98093990789E30E94561AB1
:1035C000882359F08091990781FB222720F991E007
:1035D000922790FB81F98093990782EE0E94561AF8
:1035E000882359F08091990782FB222720F991E0E6
:1035F000922790FB82F98093990786EE0E94561AD3
:10360000882359F08091990783FB222720F991E0C4
:10361000922790FB83F98093990783EE0E94561AB4
:10362000882359F08091990784FB222720F991E0A3
:10363000922790FB84F98093990785E30E94561A9C
:10364000882359F08091990785FB222720F991E082
:10365000922790FB85F98093990781E30E94561A7F
:10366000882359F08091990786FB222720F991E061
:10367000922790FB86F98093990781E10E94561A60
:10368000882359F08091990787FB222720F991E040
:10369000922790FB87F980939907809199079091E1
:1036A0009A070E94021887E20E94561AC82F8EE1DC
:1036B0000E94561A8111C2608FE10E94561A811130
:1036C000C46080E20E94561A8111C86081E20E94A3
:1036D000561A8111C06182E20E94561A8111C0629D
:1036E00083E20E94561A8111C06484E20E94561A35
:1036F000882311F0C06802C0CC2329F08C2F0E94CF
:10370000EC176C2F03C00E94E817682F70E080E070
:1037100090E00E945C1560913307709134078091AE
:103720003507909136070E9494158FE00E94561A33
:10373000882319F081E00E94801885E10E94561AC2
:10374000882321F080E0CF910C948018CF910895C8
:103750008091680780FF0BC060910D0285E0689F33
:10376000B001112475956795759567952BC081FFFC
:1037700009C060910D0285E0689FB0011124759524
:10378000679520C082FF07C060910D0285E0689FA9
:10379000B001112417C0909167079923D1F060916F
:1037A0000C02961788F720910D0285E0289F900162
:1037B0001124929FA001939F500D112470E0CA0123
:1037C0000E9424256038710540F46115710519F4D3
:1037D00006C065E070E0862F08958FE7089581E0C8
:1037E00008958091680780FF08C06091090270E029
:1037F000759567957595679521C081FF06C06091A5
:10380000090270E07595679519C082FF04C0609148
:10381000090270E010C090916607992399F06091B9
:1038200008029617A0F780910902899FC001112410
:1038300070E00E9424256038710540F4611571051F
:1038400019F406C061E070E0862F08958FE70895AF
:1038500081E00895803F21F40E94A81B819504C057
:10386000813F29F40E94A81B80936C070895823F32
:1038700021F40E94A81B819504C0833F29F40E9473
:10388000A81B80936B070895893F19F40E94F11BD0
:1038900005C08A3F31F40E94F11B819580936D072A
:1038A00008958B3F21F40E94F11B819504C08C3F49
:1038B00029F40E94F11B80936E070895843F21F440
:1038C00080916A07816017C0853F21F480916A0763
:1038D000826011C0863F21F480916A0784600BC02A
:1038E000873F21F480916A07886005C0883F31F4E2
:1038F00080916A07806180936A0708958D3F21F463
:103900008091680781600BC08E3F21F48091680729
:10391000826005C08F3F29F480916807846080939E
:1039200068070895803F39F480916C0787FF6AC06B
:1039300010926C0767C0813F29F480916C071816BC
:10394000BCF360C090916B07823F29F497FF5AC087
:1039500010926B0757C0833F19F41916CCF352C06D
:1039600090916D07893F31F419160CF04BC01092FD
:103970006D0748C08A3F19F497FF44C0F8CF8B3FCA
:1039800039F480916E0787FF3DC010926E073AC0F0
:103990008C3F29F480916E071816BCF333C0843F26
:1039A00021F480916A078E7F17C0853F21F48091B2
:1039B0006A078D7F11C0863F21F480916A078B7F53
:1039C0000BC0873F21F480916A07877F05C0883F3D
:1039D00031F480916A078F7E80936A0713C08D3F10
:1039E00021F4809168078E7F0BC08E3F21F4809177
:1039F00068078D7F05C08F3F29F4809168078B7F12
:103A00008093680780916B07811106C080916C07D5
:103A1000811102C01092670780916D07811106C065
:103A200080916E07811102C01092660708950E946E
:103A3000CE1920916B07211104C020916C0722231D
:103A400021F0909365078093640720916D07211101
:103A500004C020916E07222321F090936307809386
:103A6000620789E697E00C944E0CEF92FF920F9359
:103A70001F93CF93DF9300D000D000D0CDB7DEB737
:103A800086E0E9E6F7E0DE01119601900D928A9555
:103A9000E1F7E0906B07F0906C0700916D071091D3
:103AA0006E0710926B0710926C0710926D071092C0
:103AB0006E07E11003C0FF2009F45DC08091640728
:103AC000909165070E94DA19AC01909167079923DC
:103AD00039F020910E0230E02417350758F04BC022
:103AE00020910F028AE0289F9001112424173507A6
:103AF00018F041C09F3F19F09F5F90936707EE2039
:103B000061F00E94A81B1E1414F09FEF01C091E009
:103B1000989F902D112490936B07FF2061F00E94D5
:103B2000A81B1F1414F09FEF01C091E0989F902DE7
:103B3000112490936C0730916B073323E1F02091AF
:103B40006C072223C1F045EB3403C00111249923F3
:103B500019F090936B0703C081E080936B0735EBFE
:103B60002303C0011124992319F090936C0703C01B
:103B700081E080936C07011103C0112309F45DC03B
:103B800080916207909163070E94DA19AC019091CD
:103B90006607992339F020910A0230E0241735078F
:103BA00058F04BC020910B028AE0289F900111240D
:103BB0002417350718F041C09F3F19F09F5F90937D
:103BC0006607002361F00E94F11B101614F09FEFAE
:103BD00001C091E0989F902D112490936D071123BF
:103BE00061F00E94F11B111614F09FEF01C091E0EB
:103BF000989F902D112490936E0730916D07332379
:103C0000E1F020916E072223C1F045EB3403C0019F
:103C10001124992319F090936D0703C081E08093DC
:103C20006D0735EB2303C0011124992319F09093FC
:103C30006E0703C081E080936E0780916B0781114E
:103C40000BC080916C07811107C080916D078111B5
:103C500003C080916E0781110E94171DEB82FC82C8
:103C60000D831E8386E0FE013196A9E6B7E0019040
:103C70000D928A95E1F726960FB6F894DEBF0FBE37
:103C8000CDBFDF91CF911F910F91FF90EF900895DD
:103C9000E9E6F7E086E0DF011D928A95E9F71092E8
:103CA00067071092660710926807089580918F0742
:103CB0000895CF93DF9300D01F92CDB7DEB79091D8
:103CC0009F07943019F589837B836A8382E0809310
:103CD000E9008FEF9091E800815095FD06C095EDC9
:103CE0009A95F1F700008111F5CF8091E80085FFEA
:103CF0000DC040E050E063E070E0CE0101960E940C
:103D000086208091E8008E778093E8000F900F90D6
:103D10000F90DF91CF910895BC0184E00C94591E5F
:103D2000BC0183E00C94591E22E02093E9002FEFA0
:103D30003091E800215035FD06C035ED3A95F1F798
:103D400000002111F5CF2091E80025FF0BC040E0D5
:103D500050E066E070E00E9486208091E8008E7757
:103D60008093E8000895CF93DF9320911A022223D5
:103D700039F02091990727FF03C060E222E002C0DA
:103D800068E021E02093E9002FEF3091E800215016
:103D900035FD06C035ED3A95F1F700002111F5CF5C
:103DA0002091E80025FF1DC0EC0180911A028111CD
:103DB00005C040E050E068E070E003C070E040E023
:103DC00050E0CE010E9486208091E8008E7780939B
:103DD000E80080E2FE01AFE6B7E001900D928A951F
:103DE000E1F7DF91CF91089580919E07811109C07D
:103DF0000E9417220E9474228091E20084608093C6
:103E0000E200089510929E070895089508950C9475
:103E1000941942E061EC81E00E94902142E261EC61
:103E200082E00C9490218091A107833009F460C056
:103E300030F4813071F0823009F499C008958A30ED
:103E400009F485C08B3009F46BC0893009F0A7C034
:103E500020C08091A007813A09F0A1C08091E800BC
:103E6000877F8093E8008091A4079091A507892B14
:103E700021F460E28FE697E003C060E080E090E02C
:103E800070E00E94D1208091E8008B778093E80059
:103E900008958091A007813209F081C08091A40724
:103EA0009091A507029708F07AC08091E800877F7B
:103EB0008093E8008091E80082FD05C080919F0713
:103EC0008111F8CF6CC02091F3008091F20090E056
:103ED000922B029729F48091F1008B7F813021F49D
:103EE0008091F10080938F078091E8008B7753C019
:103EF0008091A007813A09F052C08091A407909167
:103F0000A507892B09F04BC08091E800877F80933B
:103F1000E8008091E80080FFFCCF80911A0236C053
:103F20008091A0078132D9F58091A4079091A507CF
:103F3000892BA9F58091E800877F8093E8000E9493
:103F4000C5218091A20780931A020C94700E809173
:103F5000A007813221F58091E800877F8093E800F7
:103F60000E94C5218091A3078093900708958091B6
:103F7000A007813AA1F48091E800877F8093E80050
:103F80008091E80080FFFCCF809190078093F10042
:103F90008091E8008E778093E8000C94C521089505
:103FA00084B7877F84BF0FB6F894A895809160008E
:103FB000886180936000109260000FBE90E080E8FE
:103FC0000FB6F89480936100909361000FBE0E9439
:103FD000980C0E9417220E9474228091E200846053
:103FE0008093E20078940E9409250E94A20C80E14F
:103FF00092E00E94230C80919F07853069F40E9413
:10400000621980919D078823B1F30E944819882383
:1040100091F30E947020EFCF0E94AA0CECCF0C9479
:104020001120292F332723303105C9F060F42130C6
:10403000310581F02230310509F04AC08BE390E070
:104040002AEB32E049C02132310511F1223231052B
:1040500079F13EC082E190E025EF32E03DC0992742
:104060008130910561F040F08230910559F003975D
:1040700079F5E8E8F2E008C0E6EBF2E005C0EEE929
:10408000F2E002C0EEE8F2E0849190E09F0124C0EB
:104090006115710541F061307105D1F489E090E05E
:1040A00025EE32E019C089E090E02CEC32E014C03B
:1040B0006115710541F06130710551F48CEB90E0B0
:1040C00027E033E009C080E490E023EC33E004C053
:1040D00080E090E020E030E0FA0131832083089511
:1040E00080E189BD82E189BD09B400FEFDCF8091E8
:1040F000D8008F7D8093D8008091E000826080930B
:10410000E0008091E00081FDFCCF0895CF92DF9226
:10411000EF92FF920F931F93CF93DF93EC018B01EC
:104120007A010E94E421811133C0E114F10439F0D5
:10413000F70180819181081B190BC80FD91FC12C71
:10414000D12C0115110519F18091E80085FD16C0EB
:104150008091E8008E778093E800E114F10449F043
:10416000F70180819181C80ED91ED182C08285E07D
:104170000FC00E94E421882321F30AC08991809313
:10418000F10001501109FFEFCF1ADF0ADACF80E00A
:10419000DF91CF911F910F91FF90EF90DF90CF9023
:1041A00008952091A6073091A7072617370748F0F2
:1041B0006115710539F42091E8002E772093E8000D
:1041C00001C0B901FC0120E06115710579F1809110
:1041D0009F078823F1F18530F1F18091E80083FD9C
:1041E0003CC08091E80082FD2EC08091E80080FFF5
:1041F000EBCF2091F3008091F20090E0922B6115BB
:10420000710551F08830910538F421912093F10027
:10421000615071090196F3CF21E0089709F020E081
:104220008091E8008E778093E800CECF2111CFCF28
:104230000AC080919F07882361F0853061F08091EA
:10424000E80083FD0AC08091E80082FFF2CF80E0A1
:10425000089582E0089583E0089581E00895209113
:10426000A6073091A7072617370748F06115710593
:1042700039F42091E8002E772093E80001C0B901BD
:10428000FC0120E06115710591F180919F07882361
:1042900009F440C0853009F43FC08091E80083FDF7
:1042A0003DC08091E80082FD2FC08091E80080FF32
:1042B000E9CF2091F3008091F20090E0922B6115FC
:1042C000710559F08830910540F424912093F10054
:1042D0003196615071090196F2CF21E0089709F0FB
:1042E00020E08091E8008E778093E800CBCF211109
:1042F000CCCF0AC080919F07882361F0853061F0A0
:104300008091E80083FD0AC08091E80082FFF2CF2F
:1043100080E0089582E0089583E0089581E00895A3
:10432000982F973068F59093E900981739F07091BD
:10433000EC002091ED005091F00003C0242F762F67
:1043400050E021FD02C09F5FECCF3091EB003E7F3B
:104350003093EB003091ED003D7F3093ED003091D4
:10436000EB0031603093EB007093EC002093ED0094
:104370005093F0002091EE0027FDE5CF80E00895F6
:104380008F708093E90081E008958091A00787FFF6
:1043900011C08091E80082FD05C080919F078111C6
:1043A000F8CF11C08091E8008B770BC080919F07F8
:1043B000882349F08091E80080FFF8CF8091E800E1
:1043C0008E778093E80008952091E4003091E50015
:1043D00095E64091EC00842F817040FF23C08091CE
:1043E000E80080FD1DC080919F07882399F08530EB
:1043F00099F08091EB0085FD11C04091E40050914F
:10440000E5002417350729F3915011F09A01E1CF07
:1044100084E0089582E0089583E0089581E008959E
:1044200080E008954091E80042FFDDCF08950E94AA
:1044300085220E948D22E0EEF0E080818160808301
:10444000E8EDF0E080818F77808319BCA7EDB0E0C4
:104450008C918E7F8C9380818F7E808310929E07BB
:1044600008950F931F93CF93DF930E9485220E949C
:104470008D22C8EDD0E088818F778883888180681D
:10448000888388818F7D888319BC10929F07109242
:104490009B0710929D0710929C0700EE10E0F80118
:1044A00080818B7F808388818160888342E060E0A7
:1044B00080E00E949021E1EEF0E080818E7F808399
:1044C000E2EEF0E08081816080838081886080837B
:1044D000F80180818E7F8083888180618883DF916D
:1044E000CF911F910F910895E8EDF0E080818F7ECC
:1044F0008083E7EDF0E080818160808384E082BF8B
:1045000081E080939E070C943122E8EDF0E08081F9
:104510008E7F80831092E20008951092DA0010924C
:10452000E10008951F920F920FB60F9211242F935E
:104530003F934F935F936F937F938F939F93AF932B
:10454000BF93EF93FF938091E10082FF0BC08091B6
:10455000E20082FF07C08091E1008B7F8093E10041
:104560000E9408258091DA0080FF1FC08091D8004A
:1045700080FF1BC08091DA008E7F8093DA008091EB
:10458000D90080FF0DC080E189BD82E189BD09B4F9
:1045900000FEFDCF81E080939F070E94F41E05C0BE
:1045A00019BC10929F070E94021F8091E10080FFBA
:1045B00019C08091E20080FF15C08091E2008E7FDB
:1045C0008093E2008091E20080618093E20080911C
:1045D000D80080628093D80019BC85E080939F0743
:1045E0000E94061F8091E10084FF30C08091E200AC
:1045F00084FF2CC080E189BD82E189BD09B400FE41
:10460000FDCF8091D8008F7D8093D8008091E1000C
:104610008F7E8093E1008091E2008F7E8093E200A4
:104620008091E20081608093E20080919B07882363
:1046300011F084E007C08091E30087FD02C081E0B3
:1046400001C083E080939F070E94071F8091E100D3
:1046500083FF29C08091E20083FF25C08091E100A3
:10466000877F8093E10082E080939F0710929B07F1
:104670008091E1008E7F8093E1008091E2008E7F47
:104680008093E2008091E20080618093E20042E04A
:1046900060E080E00E9490218091F000886080932B
:1046A000F0000E94051FFF91EF91BF91AF919F9184
:1046B0008F917F916F915F914F913F912F910F90CB
:1046C0000FBE0F901F9018951F920F920FB60F926A
:1046D00011242F933F934F935F936F937F938F9307
:1046E0009F93AF93BF93CF93DF93EF93FF93C091CB
:1046F000E900CF708091EC00D82FD17080FDD0E818
:104700001092E9008091F000877F8093F000789408
:104710000E94A8231092E9008091F00088608093A5
:10472000F000CD2BCF70C093E900FF91EF91DF91A6
:10473000CF91BF91AF919F918F917F916F915F9139
:104740004F913F912F910F900FBE0F901F90189592
:104750001F93CF93DF93CDB7DEB7AA970FB6F89428
:10476000DEBF0FBECDBFE0EAF7E08091F10081939C
:1047700027E0E83AF207C9F70E94131F8091E8008A
:1047800083FF2EC18091A0079091A107492F50E08F
:104790004A30510508F024C1FA01E059FF4F0C944A
:1047A0003825803821F0823809F01AC108C080917C
:1047B0009C0790919D07992389F082600FC080919A
:1047C000A4078F70873008F00BC18093E9008091B7
:1047D000EB0085FB882780F91092E9009091E800B2
:1047E000977F9093E8008093F1001092F100D1C080
:1047F000282F2D7F09F0F4C0882319F0823061F052
:10480000EFC08091A207813009F0EAC0933009F02F
:1048100080E080939D072EC08091A20781112AC05D
:104820008091A4078F702FEF280F263008F0D8C092
:104830008093E9002091EB0020FF1CC0933021F40D
:104840008091EB00806214C09091EB009061909396
:10485000EB0021E030E0A90102C0440F551F8A950A
:10486000E2F74093EA001092EA008091EB00886042
:104870008093EB001092E9008091E800877F80939D
:10488000E8000E94C521ACC08111AAC01091A20706
:104890001F778091E3008078812B8093E3008091E3
:1048A000E800877F8093E8000E94C5218091E8009E
:1048B00080FFFCCF8091E30080688093E3001111BA
:1048C00002C082E001C083E080939F0789C08058C6
:1048D000823008F085C08091A2079091A3078C3D9B
:1048E00053E0950779F583E08A838AE289834FB79D
:1048F000F894DE01139620E03EE051E2E32FF0E071
:1049000050935700E49120FF03C0E295EF703F5FA2
:10491000EF708E2F90E0EA3010F0C79601C0C0967D
:104920008D939D932F5F243149F74FBF8091E8000D
:10493000877F8093E8006AE270E0CE0101960E94D2
:10494000D12016C06091A4077091A507AE014F5FFA
:104950005F4F0E940F20BC01892B09F441C0909148
:10496000E800977F9093E80089819A810E942F2127
:104970008091E8008B778093E80032C0803881F521
:104980008091E800877F8093E80080919B07809367
:10499000F1008091E8008E7772CF811121C0809163
:1049A000A2079091A30799270297D4F48091E80079
:1049B000877F8093E8008091A20780939B070E94E5
:1049C000C52180919B07811106C08091E30087FD7E
:1049D00002C081E001C084E080939F070E94091F0C
:1049E0008091E80083FF0AC08091E800877F809370
:1049F000E8008091EB0080628093EB00AA960FB6EE
:104A0000F894DEBF0FBECDBFDF91CF911F91089507
:104A10000895CF9380919F078823A1F0C091E9006A
:104A2000CF709091EC00892F817090FD80E8C82BA9
:104A30001092E9008091E80083FD0E94A823CF70C6
:104A4000C093E900CF91089597FB072E16F40094C8
:104A500007D077FD09D00E943E2507FC05D03EF423
:104A6000909581959F4F0895709561957F4F08951A
:104A7000EE0FFF1F0590F491E02D0994AA1BBB1BBC
:104A800051E107C0AA1FBB1FA617B70710F0A61B4E
:104A9000B70B881F991F5A95A9F780959095BC016F
:104AA000CD010895F999FECF92BD81BDF89A99275D
:104AB00080B50895A8E1B0E042E050E00C9486256E
:104AC000262FF999FECF92BD81BDF89A019700B4C7
:104AD000021639F01FBA20BD0FB6F894FA9AF99A67
:104AE0000FBE08950396272F0E9461250E9460251E
:104AF000252F0E946125242F0C9461250196272FD4
:104B00000E9461250C946025DC01CB01FC01F99920
:104B1000FECF06C0F2BDE1BDF89A319600B40D9209
:0C4B200041505040B8F70895F894FFCFC2
:104B2C002A002002050000001A02050000001402F1
:104B3C00060000000C020700000004020700000041
:104B4C00FE0109000000F8010A000000F2010B0050
:104B5C000000EC010B000000E60118000000E00171
:104B6C000E000000D8010F000000D0011000000062
:104B7C00CA0111000000C20113000000BA011400A8
:104B8C000000B4010D000000AE0119000000A801E6
:104B9C001A000000A0011B00000096011D0000007F
:104BAC008C012B0000008401290000007A012C00EC
:104BBC0000007401280000006E012A00000068014A
:104BCC00015500006201045500005C01085500000D
:104BDC005201375D000048010255000040013400CD
:104BEC0000003A01360000003401370000002E01AD
:104BFC0038000000280124000000220125000000DC
:104C0C001C01260000001601270000000401005CB6
:104C1C000000FC0015500000F40010500000860647
:104C2C008E020101FFFF3D072808641E32060C02AC
:104C3C00561EB31E941E901E8C1E01E200E900EA63
:104C4C0000B500B600B700CD008301CC008A0192FC
:104C5C000194012102230224022502260227022AA2
:104C6C0002B300B4006F0070008182839766949148
:104C7C0031343533E200E900EA00B500B600B70084
:104C8C00CD008301CC008A01920194012102230200
:104C9C0024022502260227022A02B300B4006F0068
:064CAC007000818283000C
:00000001FF
